:020000040800F2
:10000000600500209D0100082F260008DF20000861
:100010002D260008150400088D2C000800000000A3
:10002000000000000000000000000000A72B0008F6
:10003000210500080000000051260008A92B000837
:10004000B7010008B70100087D2C0008B7010008BF
:10005000B7010008B70100082305000831050008B2
:10006000370500083D050008B7010008B701000882
:10007000B7010008B7010008B7010008B701000880
:10008000B7010008B7010008B7010008B701000870
:10009000B7010008B7010008B701000843050008D0
:1000A000B7010008B7010008B7010008B701000850
:1000B000B7010008892C00088B2C0008B701000844
:1000C000B7010008B7010008B7010008B701000830
:1000D000B7010008B7010008B7010008B701000820
:1000E00029050008CD290008B7010008B70100085C
:1000F000B7010008B7010008B7010008B701000800
:10010000B7010008B7010008B7010008B7010008EF
:10011000B7010008B7010008B7010008B7010008DF
:10012000B7010008B7010008B7010008B7010008CF
:10013000B7010008B7010008B7010008B7010008BF
:10014000B7010008B7010008B7010008B7010008AF
:10015000B7010008B7010008B7010008B70100089F
:10016000B7010008B7010008B7010008B70100088F
:10017000B7010008B7010008B7010008000000003F
:10018000B7010008B7010008DFF80CD000F040F814
:10019000004800478133000860050020064880477A
:1001A00006480047FEE7FEE7FEE7FEE7FEE7FEE75C
:1001B000FEE7FEE7FEE7FEE7392C000889010008AC
:1001C000D2B201E000F8012B491EFBD27047002299
:1001D000F6E710B513460A4604461946FFF7F0FF46
:1001E000204610BD30B50B460146002020220124D8
:1001F00009E021FA02F59D4205D303FA02F5491BF5
:1002000004FA02F52844151EA2F10102F1DC30BD0A
:10021000064C074D06E0E06840F0010394E8070053
:1002200098471034AC42F6D3FFF7B2FF703700089E
:100230009037000870B5094D094E002435F81410A8
:1002400056F8240000F0B3FA012805D0641CE4B28B
:10025000052CF3D3052070BD204670BD0A37000879
:10026000640000202DE9F04F002487B00646254D9C
:10027000DFF894A003274FF00209DFF8908012E026
:100280008CB1032C0FD0012C0DD0022C0BD0042CE0
:1002900009D000BF38F81400CDE9029700905EB194
:1002A000012E11D025E0E86C40F00100E864E86C14
:1002B00000F001000590EDE7002001905AF82400BD
:1002C000694600F08FF914E0114801905AF82400B3
:1002D000694600F087F9DFF834B00022ABF1060B75
:1002E0000F211BF9040000F0C1FD1BF9040000F010
:1002F000B2FD641CE4B2052CC2D307B0002000F0AC
:1003000009B8000000100240640000200A3700080D
:100310000000211030BCBDE8C08F0000014800F093
:100320006BBC00001001002070B50546002408E0F9
:10033000002223461146284602F0AAFC641CE4B2BF
:100340006D1C287808B1052CF2D9BDE87040014831
:1003500000F011BD10010020114810B50F490160D7
:1003600000214FF47012C0E901120C22C2604FF458
:10037000A05340228361C0E90421C0E907121202A0
:100380004162C0E90A12016302F0B4F8044800F0C7
:1003900073FCBDE81040024800F02EBC0024004071
:1003A0001001002030B50400174887B002D0012C9E
:1003B00008D00FE0C16C41F00201C164C06C00F0D4
:1003C000020006E0C16C41F01001C164C06C00F095
:1003D000100005900D480E4D694630F8140000904D
:1003E00001200190002002900320039055F8240082
:1003F00000F0F8F80098002281B255F8240000F0CF
:10040000DBF907B030BD00000010024000370008E3
:100410005C000020FEE7000070B5002300781C4659
:10042000342817D00FDCA0F12005142D24D2DFE8EA
:1004300005F035232323235623233B3D384E234BFE
:10044000235111111111642832D009DCA0F13505B6
:10045000042D11D8304B03EB400030F8603C1DE018
:10046000B02839D004DC6D2825D06E2804D125E0D1
:10047000B52826D0FF2835D0274DA0F14106343DC0
:100480001A2E03D205EB400333F8823CA0F161063B
:100490001A2E03D205EB400030F8C23C012924D0CB
:1004A00025E04AF2DD03F9E72823F7E71123F5E712
:1004B0004FF47343F2E74BF21023EFE742F21023BD
:1004C000ECE746F28403E9E74FF42043E6E74AF21B
:1004D0001403E3E7C023E1E74FF46C43DEE74FF496
:1004E0003343DBE74FF6DD73D8E743F00203012A1D
:1004F00001D143F0200309490C2000BF23FA00F288
:1005000002F00F0241F82420001F641CE4B2C0B2C4
:10051000042CF3D370BD0000EC3600084C01002021
:100520007047012000F052B84FF4804000F04EB800
:10053000022000F04BB8042000F048B8082000F07A
:1005400045B8202000F042B870B5044600F03AF9F2
:100550000546601C00D0641C00F034F9401BA0422A
:10056000FAD370BD10B508281BD00ADC114A4FF031
:100570000101012811D0022811D0042800D1917363
:1005800010BD202811D0B0F5804FF9D1FFF7C6FE7D
:1005900009A0BDE81040FFF7C7BE517410BD5173EC
:1005A00010BDFFF7BBFE06A0F3E7FFF7B7FE05A0FF
:1005B000EFE700000000002050453134000000004B
:1005C00075700000646F776E00000000044910B57C
:1005D0000A68024202D00860FFF7C4FF10BD0000A5
:1005E000140401402DE9F84FDFF898B100234FF0D3
:1005F000010C4FF0030A4FF00F090BF1040EB9E0A4
:100600000CFA03F4224070D04D68022D01D0122D57
:100610000ED1DD0800EB8508D8F820505E07F70EF4
:1006200009FA07F6B5430E69BE402E43C8F82060AC
:1006300007685E0091F804800AFA06F508F00308DE
:10064000AF4308FA06F848EA0708C0F800804F6888
:10065000012F05D0022F03D0112F01D0122F13D15B
:10066000D0F80880CF6828EA0508B74047EA0807AD
:100670008760D0F804800F7928EA0408C7F30017D0
:100680009F4047EA08074760D1F804806FEA0807EF
:10069000BF0706D1C76AA743C8F3C0049C403C43C8
:1006A000C462C468AC438D68B5402543C5604C68DE
:1006B000E4005ED5344C256E45F001052566246EB8
:1006C00023F0030504F001040094304C2E19B468A3
:1006D0009D072F0F09FA07F5AC43B0F1904F05D0F5
:1006E0002B4DA84204D101251CE042E0002519E071
:1006F000284DA84201D1022514E0274DA84201D17E
:1007000003250FE0254DA84201D104250AE0244D20
:10071000A84201D1052505E0224DA84201D10625B8
:1007200000E00725BD402543B560DBF800405D468D
:100730004E689443F60300D514432C60DEF8004065
:1007400075464E689443B60300D514432C600D4D96
:1007500008352C684E689443F60200D514432C608B
:10076000084D0C352C684E689443B60200D51443EE
:100770002C605B1C0A6832FA03F57FF441AF00F08D
:1007800013B80000000401400010024000000140C6
:100790000004004800080048000C00480010004811
:1007A000001400480018004818BCBDE8E08F00693C
:1007B000084000D0012070470AB181617047816212
:1007C0007047000001480068704700007800002072
:1007D00010B5040013D0242084F84100206801687B
:1007E00021F001010160204600F0DBF90020606487
:1007F00084F8410044F8300FA074207410BD01202B
:1008000010BD90F84100704770B5040004D094F812
:100810004100002510B106E0012070BD84F8405071
:10082000204600F0BFF9242084F8410020680168C8
:1008300021F0010101606068216820F070600861AA
:100840002068816821F400418160E0680128A06887
:1008500007D040F4044021688860E068022803D093
:1008600006E040F40040F6E721684FF4006048607D
:1008700020684168114A114341602068C16821F431
:100880000041C160D4E904010843A16940EA0120A4
:100890002168C860D4E9070108432168086020681E
:1008A000016841F0010101606564202084F8410085
:1008B000256384F84250002070BD000000800002D3
:1008C0002DE9FF4F83B00446DDE9108790F8410021
:1008D000DDF848909A469346202875D15FEA0800D3
:1008E00073D0002F71D094F8400001286CD0012003
:1008F00084F84000FFF766FF0646012200901923A6
:10090000D103204601F07CFD002875D1222084F817
:100910004100402084F8420000256564C4F824802A
:1009200067856563CDE9009653465A46204604998B
:1009300001F0E6FC28B1606C84F8405004285FD0D8
:100940005AE0618DFF274FF410504FF080784FF040
:10095000007AFF2904D927853A464346009005E0EE
:10096000618D2185009094F82820534620460499F3
:1009700001F034FD4B46002204212046009601F090
:100980003FFDC8BB2068416A606A421C6262017018
:10099000208D401E0004000C2085618DA1F1010115
:1009A00061851DD1608DD8B14B4600228021204643
:1009B000009601F025FDF8B9608DFF2806D927853E
:1009C0003A464346009507E02CE019E0608D20850B
:1009D000009594F8282053462046049901F0FEFC27
:1009E000608D0028C6D132464946204601F031FDCF
:1009F00040B1606C042803D0032007B000F016B8A3
:100A00000120FAE721682020C86121684A68064B66
:100A10001A404A6084F8410084F8425084F84050FB
:100A20000020EAE70220E8E700E800FE30BCBDE86D
:100A3000C08F00002DE9FF4F83B00446DDE9108729
:100A400090F84100DDF848909A469346202870D1EE
:100A50005FEA08006ED0002F6CD094F840000128A7
:100A600067D0012084F84000FFF7ACFE0646012263
:100A700000901923D103204601F0C2FC002854D174
:100A8000212084F84100402084F84200002565645C
:100A9000C4F8248067856563CDE9009653465A46BD
:100AA0002046049901F063FC28B1606C84F8405042
:100AB00004286CD039E0608DFF274FF080784FF02C
:100AC000007AFF2804D927853A464346009505E079
:100AD000608D2085009594F828205346204604997F
:100AE00001F07CFC32464946204601F0D9FC18B1A1
:100AF000606C04284BD018E0606A411C6162216878
:100B000000788862608D401E6085208D401E000444
:100B1000000C208521D1608DF8B14B460022802148
:100B20002046009601F06CFC28B1032007B000F0CD
:100B300035B82EE02BE0608DFF2804D927853A4692
:100B40004346009505E0608D2085009594F82820A7
:100B500053462046049901F041FC608D0028C1D124
:100B600032464946204601F074FC0028C0D1216875
:100B70002020C86121684A68074B1A404A6084F8FF
:100B8000410084F8425084F840500020CEE7012014
:100B9000CCE70220CAE7000000E800FE30BCBDE858
:100BA000C08F70477047000002480168491C01600F
:100BB000704700007800002010B5032000F076F99F
:100BC0000F2000F005F800F045F9002010BD0000EE
:100BD00010B5044607484FF47A710068B0FBF1F095
:100BE00001F069FA00222146501E00F03FF9002072
:100BF00010BD00007C0000202DE9F041044690F873
:100C00003500012806D094F83500022802D00120D2
:100C1000BDE8F08194F8340001280CD0012084F85C
:100C20003400022784F83570FFF7CCFD06464FF4F8
:100C30007A7800250CE00220EAE700BFFFF7C2FD4A
:100C4000801B404504D9A76384F834500320DFE7B4
:100C500020688068C0434007F0D500205FF0140191
:100C6000226801EB8003D550401C0F28F8D920469C
:100C700000F081F80020CBE72DE9F04104004FF0AF
:100C8000000504D094F83500002618B107E00120D3
:100C9000BDE8F08184F83460204600F06BF8022053
:100CA00084F835002068016821F0010101601420FA
:100CB000216800EB85028E506D1C0F2DF8D920683D
:100CC000816841F004018160D4E901010843D4E95D
:100CD0000A1211430843E1690843216A0843A169E4
:100CE0000843616A084321684A68214B1A4010434F
:100CF0004860204601F082FCD4E903100143226BD6
:100D00006069104301432068026822F0FE0211432B
:100D100001602068016841F001010160FFF752FDA8
:100D200005464FF47A7706E0FFF74CFD401BB842CA
:100D300001D908200EE020688068C043C007F3D1C5
:100D4000FFF740FD054608E0FFF73CFD401BB842B9
:100D500003D91020A06303209AE720688068C0436D
:100D6000C006F1D4A663012084F8350000208FE787
:100D70000E0000FC70472DE9F04104460820216870
:100D8000C8602068816841F004018160FFF71AFDA6
:100D9000054600264FF47A770BE0FFF713FD401B62
:100DA000B84206D90420A06384F834600320BDE86B
:100DB000F08120688068C0430007EED4012084F8E9
:100DC000350084F834600020F1E700002DE9F04799
:100DD000044690F835009A4690468946012806D088
:100DE00094F83500022802D00120BDE8F08794F87D
:100DF0003500012822D194F8340001280BD00120BD
:100E000084F83400022684F83560FFF7DBFC0546E1
:100E10004FF47A770DE00220E7E700BFFFF7D2FC3E
:100E2000401BB84205D9A663002084F83400032093
:100E3000DBE720688068C0434007EFD514222168B3
:100E400002EB89000A5802EA080242EA0A020A5042
:100E50000020CAE7704700F01F02012191404009BD
:100E6000800000F1E020C0F800117047F0B40E4B94
:100E70001B680C46C3F30223C3F10705042D00D9F8
:100E80000425191D072901D2002300E0DB1E0126DD
:100E900006FA05F1491E214099409E40761E1640F3
:100EA0003143F0BC01F0C4BB0CED00E0064900F09A
:100EB000070208684FF6FF03184040EA0220034A81
:100EC00010430860704700000CED00E00000FA05D8
:100ED0001549B0F5007F0868C0F3412009D0022809
:100EE00005D0086820F4C06040F4806008600020ED
:100EF00070470128FBD0086820F4C06040F40070FF
:100F000008600A480A4A0068B0FBF2F032225043F7
:100F100000E0401E10B14A695205FAD44869400504
:100F2000E5D5032070470000007000407C000020E1
:100F300040420F000248416841F40071416070472F
:100F4000007000400248006800F4C0607047000074
:100F5000007000400248016841F4807101607047F0
:100F6000007000402DE9F84F044600270088E54D49
:100F70003E46010504F1200B1DD5606E78B1B0F539
:100F8000800F11D0B0F5000F04D0B0F5400F22D083
:100F900001270FE0E86840F48030E8601BE00021A2
:100FA000201D01F057FB03E00021584601F006FC2C
:100FB000070010D03E462088C00426D5A06EC0B1E0
:100FC000B0F1807F1AD0B0F1007F0DD0B0F1407F3A
:100FD00019D0012718E0D5F88800616E20F4400090
:100FE0000843C5F88800E6E7E86840F48030E86028
:100FF00009E00021201D01F02DFB03E000215846EF
:1010000001F0DCFB0746F7B13E46206880033AD585
:10101000A86D4FF00008C00009D4A86D40F08050C2
:10102000A865A86D4FF0010800F080500090DFF82F
:10103000D8A2DAF8001041F48071CAF80010FFF766
:10104000C1FB814610E0D5F88800A16E20F0407009
:101050000843C5F88800D8E7FFF7B4FBA0EB090008
:10106000022801D9032705E0DAF80000C005F3D50E
:10107000002F7CD04FEA0706B8F1000F03D0A86D0F
:1010800020F08050A8652078C00707D0D5F88800E8
:10109000A16B20F003000843C5F888002078800782
:1010A00007D5D5F88800E16B20F00C000843C5F89F
:1010B00088002078400707D5D5F88800216C20F0FB
:1010C00030000843C5F888002078000707D5D5F818
:1010D0008800616C20F0C0000843C5F888002078C3
:1010E000C00607D5D5F88800A16C20F440700843ED
:1010F000C5F888002078800607D5D5F88800E16C0F
:1011000020F440600843C5F888002088800507D592
:10111000D5F88800E16D20F440200843C5F8880028
:101120002088400507D5D5F88800216E20F44010AE
:101130000843C5F888002078400607D5D5F8880010
:10114000216D20F440500843C5F88800207800063F
:1011500007D5D5F88800616D20F440400843C5F8F4
:1011600088002088C00509D5D5F8880000E01CE07B
:10117000A16D20F440300843C5F8880020884FF066
:10118000006780044FF080684FD5D5F88800E16E85
:1011900020F040600843C5F88800E06EB8423CD1BA
:1011A000E86840F48010E8603FE0D5F8900010F463
:1011B000407015D0D4F88410814211D0D5F8900039
:1011C000D5F8901020F4407041F48031C5F89010AB
:1011D000D5F8901021F48031C5F89010C5F8900032
:1011E000C00710D0FFF7EEFA074641F2883906E053
:1011F000FFF7E8FAC11B494501D903263CE7D5F8BA
:1012000090008007F4D5D5F89000D4F8841020F42D
:1012100040700843C5F890002EE7404505D10121F4
:10122000201D01F017FA00B106462068000317D50B
:10123000D5F88800216F20F040600843C5F8880089
:10124000206FB84204D1E86840F48010E86007E0FD
:10125000404505D10121201D01F0FCF900B10646F1
:101260002068400317D5D5F88800616F20F04060F2
:101270000843C5F88800606FB84204D1E86840F4BC
:101280008010E86007E0404505D10121201D01F0F4
:10129000E1F900B10646208840041AD5D5F8880047
:1012A000A16F20F040500843C5F88800A06FB0F14E
:1012B000805F03D0B0F1005F05D00AE00221201D5D
:1012C00001F0C8F903E00221584601F077FA00B1B5
:1012D00006462088000407D5D5F88800E16F20F085
:1012E00080400843C5F888002068C00307D555F83A
:1012F000880FD4F8801020F0004008432860304662
:1013000000F004B8001002400070004018BCBDE8B6
:10131000E08F00002DE9F047DFF8688105460E46B2
:10132000D8F8000000F00700B0420CD2D8F8001046
:1013300021F007013143C8F80010D8F8000000F090
:101340000700B04274D128784F4C800705D5A068BB
:10135000A96820F0F0000843A0602878C00756D0A4
:101360006868022818D0032819D02168D0B149052F
:1013700000295DDAA16821F003010143A160FFF7B4
:1013800021FA6968074641F28830022912D0032900
:101390001ED0814649B335E021688903E8E721681A
:1013A0008901E5E78907E3E7FFF70CFAC11B494527
:1013B00001D924E08146A068C0F381000228F3D15E
:1013C00025E000BFFFF7FEF9C11B494501D916E032
:1013D0008146A068C0F381000328F3D117E000BF65
:1013E000FFF7F0F9C11B494509D8A06810F00C0FB0
:1013F000F6D10CE0FFF7E6F9C11B494502D90320FD
:10140000BDE8F087A068C0F381000128F2D1D8F8C8
:101410000010404601F00701B1420BD9016821F0EC
:10142000070131430160006800F00700B04201D0BD
:101430000120E5E72878400705D5A068E96820F491
:10144000E0600843A0602878000706D5A0682969F5
:1014500020F4605040EAC100A06000F01BF8A168D1
:10146000F02292FAA2F201F0F001B2FA82F2D14037
:10147000064A515CC840064908600F20FFF7A8FBE8
:101480000020BDE700200240001002401437000891
:101490007C00002070B53B49002318468A683A4C0E
:1014A00012F00C0F4FEA640514D08A68C2F381026F
:1014B000032A04D1CA6802F00302012A0AD08A680A
:1014C000C2F38102012A21D08A68C2F38102022A72
:1014D0001ED01EE00A68120706D4D1F894204FF4FB
:1014E000706302F4706203E00A68F02302F0F00215
:1014F00093FAA3F3B3FA83F3DA40244B53F8223080
:101500008A6812F00C0F04D1184602E0204600E071
:1015100028468A68C2F38102032A31D1C868CA68A2
:1015200000F00300702696FAA6F602F07002B6FAF2
:1015300086F6F240521C4FF4FE46022804D00328DF
:1015400005D0B3FBF2F004E0B4FBF2F001E0B5FB30
:10155000F2F0CA6896FAA6F302F4FE42B3FA83F3F5
:10156000DA40C96850434FF0C06292FAA2F201F02B
:10157000C061B2FA82F2D140491C4900B0FBF1F0DF
:1015800070BD0000001002400024F4002437000861
:101590002DE9F84304460078FE4DC00663D5A868DF
:1015A00010F00C0F0AD0A0690028286878D040F00D
:1015B00001002860FFF706F906465AE02868800710
:1015C00002D5A06900286AD0216A28684FF0F00689
:1015D000000703D5286800F0F00003E0D5F8940078
:1015E00006EA1010814216D9084601F085F9002854
:1015F00055D1286840F0080028602868216A20F04A
:10160000F000084328606868E16920F47F4040EA00
:101610000120686015E0286840F00800286028680C
:10162000216A20F0F000084328606868E16920F42E
:101630007F4040EA01206860206A01F05DF90028DF
:10164000D6D1FFF727FFA96896FAA6F201F0F001BC
:10165000B2FA82F2D140D04A515CC840CF4908600A
:101660000F20FFF7B5FA2BE0FFF7ACF8801B02283C
:101670007ED828688007F7D5286840F008002860E1
:101680002868216A20F0F000084328606868E16952
:1016900020F47F4040EA0120686011E000E0B7E0FC
:1016A00020F001002860FFF78DF8064605E000BF36
:1016B000FFF788F8801B0228DAD828688007F7D45B
:1016C0002078C00748D0A868C0F3810002281DD048
:1016D000A868C0F38100032803D1E868C0438007ED
:1016E00014D06068B0F5803F17D0B0F5A02F2868FF
:1016F00017D020F480302860286820F480202860EB
:101700006068E0B1FFF75EF8064614E028688003E1
:1017100022D5606800287BD01EE0286840F4803025
:10172000EDE740F480202860F7E700BFFFF74AF8B4
:10173000801B64289CD828688003F7D50CE0FFF74D
:1017400041F8064605E000BFFFF73CF8801B64281F
:101750008ED828688003F7D42078800748D5A868F9
:101760004FF0F857C0F38100012816D0A86800E0B8
:10177000AFE0C0F38100032804D1E86800F0030063
:1017800002280AD0E0680028286821D040F4807040
:101790002860FFF717F806460BE0286840050BD5D0
:1017A000E0680028B7D007E0FFF70CF8801B02289C
:1017B000C0D828684005F7D5686897FAA7F221696C
:1017C000B2FA82F220F0F8509140084368600FE0CE
:1017D00020F480702860FEF7F5FF064605E000BFA4
:1017E000FEF7F0FF801B022873D828684005F7D465
:1017F0002078000729D560690028D5F8940013D017
:1018000040F00100C5F89400FEF7DCFF064606E054
:10181000FBE000BFFEF7D6FF801B022859D8D5F8A1
:1018200094008007F6D510E020F00100C5F8940080
:10183000FEF7C8FF064604E0FEF7C4FF801B02283F
:1018400047D8D5F894008007F6D42078400763D5B0
:10185000A86D0026C00008D4A86D40F08050A8658F
:10186000A86D012600F0805000904D480168C90520
:1018700011D40168804641F480710160FEF7A2FF37
:10188000074604E0FEF79EFFC01B022821D8D8F8C7
:101890000000C005F6D5A068012815D00528D5F8A8
:1018A000900017D020F00100C5F89000D5F8900006
:1018B00020F00400C5F89000A06841F28838C8B153
:1018C000FEF780FF074610E0D5F8900040F00100D9
:1018D000F0E75EE040F00400C5F89000F4E700BFD8
:1018E000FEF770FFC11B414553D8D5F89000800723
:1018F000F6D50CE0FEF766FF074604E0FEF762FF50
:10190000C11B414579D8D5F890008007F6D41EB1A7
:10191000A86D20F08050A865A06AC8B3A968C1F37B
:101920008101032972D00228286820F08070286085
:1019300011D02868000106D42868800003D4E86824
:1019400020F00300E860E86816490840E860FEF708
:1019500039FF044654E0FEF735FF064605E000BFB8
:10196000FEF730FF801B022847D828688001F7D493
:10197000206BE16A000110380843616BA26B090219
:10198000120941EA42410843A18F074A49080DE084
:1019900039E032E000100240143700087C000020DB
:1019A00000700040FFFFEEFE0000E0FF02EB41513F
:1019B000084394F840104908120102EB41610843C2
:1019C000E860286840F080702860E86840F0807027
:1019D000E860FEF7F7FE044605E000BFFEF7F2FE02
:1019E000001B022809D828688001F7D50BE000BF4A
:1019F000FEF7E8FE001B022802D90320BDE8F883A9
:101A000028688001F4D40020F8E7FFE70120F5E71B
:101A100070477047704770472DE9F04133490446DD
:101A20004FF4002008608D13061D314F40E081689F
:101A300009040CD5C068000509D5204600F05AF805
:101A40002068C16801F0800161F40861C16020680C
:101A5000016C29420BD0C168890408D5C16801F026
:101A6000800161F40251C1602046FFF7D2FF206877
:101A7000016C31420BD0C168490408D5C16801F03E
:101A8000800161F48141C1602046FFF7C3FF2068F7
:101A9000016C39420CD0C168090409D5C16801F054
:101AA0008001A1F500418139C1602046FFF7B3FFF5
:101AB00020688168090402D5C1680905B7D4016CA2
:101AC000294202D0C1688904B1D4016C314202D0EC
:101AD000C1684904ABD4016C394202D0C168090421
:101AE000A5D4012084F82100BDE8F0811404014050
:101AF00004004000704700001CB50C4C2078002802
:101B000012D101F007FC6179A079CDE90001E379F8
:101B100007A20821084801F0EBFAFEF7FFFBBDE839
:101B20001C400548FEF700BC1CBD00000000002062
:101B300025642564256400008000002010B51B4941
:101B400004464FF4802008601EE08868C0040BD56E
:101B5000C868C00508D5C86800F0800060F4C0708F
:101B6000C8602046FFF7C8FF2068816889040BD54C
:101B7000C168890508D5C16801F0800161F4207150
:101B8000C1602046FFF744FF21688868C00402D581
:101B9000C868C005D9D48868800402D5C8688005A3
:101BA000D3D4012084F8210010BD000014040140AA
:101BB00010B500680B4641680D480140080CD8700C
:101BC000C1F304245C7001F03F049C70C1F3423106
:101BD000197052B900F000FFD870587800F0FCFE80
:101BE0005870987800F0F8FE9870002010BD000042
:101BF0003FFFFF0010B50B460168896A5960016814
:101C00000969C1F30E019960006801680E4801403E
:101C1000C1F305401870C1F306245C7001F07F0425
:101C20009C70402404EA1141D97052B900F0D4FEEE
:101C30001870587800F0D0FE5870987800F0CCFEFC
:101C40009870002010BD00007F7F7F0070B50400F9
:101C500003D094F8210010B107E0012070BD0020EE
:101C600084F82000204600F04DF8022084F821007E
:101C70002168CA204862216853204862204600F04B
:101C800075FFFF25042618BB206881681C4A114097
:101C90008160216888686268A369104322691A43D9
:101CA000104388602168E068086120680169228922
:101CB00041EA024101612068C16821F08001C160F0
:101CC00020688068800608D4204600F0D9F920B149
:101CD0002068456284F82160BFE72068C16C21F06C
:101CE0000301C1646169E06908432168CA6C10435B
:101CF000C86420684562012084F82100002070BD7E
:101D0000BFFF8FFF704700002DE9F05F044690F899
:101D100020000B46012849D04FF0010A84F820A08A
:101D2000022084F821002068002680684FEA406085
:101D3000DAB3002857DA187800F04EFE93F8200046
:101D400000F04AFE98781978DA7840EA014059782C
:101D5000090241EA0241084393F8201040EA016574
:101D6000D8695F6805435869216805439869074346
:101D7000CA204862216853204862586A4FF0FF0821
:101D8000B0F5807F20684FF47A7B81682DD021F4F4
:101D9000007181602068C16801F0800161F42071E8
:101DA000C160FEF70FFD814655E002E0022000F021
:101DB0007BB8002800DBDE70187800F016FE020405
:101DC000587800F012FE42EA0022987800F00DFEEA
:101DD0000243D87842EA004293F8200000F005FE62
:101DE00042EA0065BCE7DE70A8E721F480718160FB
:101DF0002068C16801F0800161F4C071C160FEF724
:101E0000E1FC814606E000BFFEF7DCFCA0EB090028
:101E1000584517D82068C068C007F5D02068C5614C
:101E2000206847642068816841F48071816020687F
:101E3000816841F480511FE0FEF7C4FCA0EB09006B
:101E4000584508D92168C1F82480032084F821006E
:101E500084F82060ABE72068C0688007ECD5206874
:101E60000562206887642068816841F400718160A0
:101E70002068816841F4005181600A48016841F49A
:101E80008021016007480830016841F48021016029
:101E90002168C1F8248084F821A084F82060002003
:101EA00085E700000004014030BCBDE8C09F000091
:101EB0002DE9F047044690F820000B46012826D073
:101EC0004FF0010984F82090022084F8210058780E
:101ED00002B300F081FD987800F07EFD9878D97803
:101EE00040EA014558781978000240EA413005433C
:101EF0002168CA204862216853204862204600F0C9
:101F000035FE0026FF274FF0040858BB19E00220D9
:101F1000BDE8F087C10603D500F0EF000A30587025
:101F2000D87800F062FD0204587800F05EFD42EAC5
:101F30000022987800F059FD0243187842EA4035B3
:101F4000D6E710480540206845602068C16821F048
:101F50008001C1602068806880060BD4204600F0B4
:101F60008FF838B12068476284F8218084F82060B7
:101F70000120CDE72068476284F8219084F8206032
:101F80000020C5E73FFFFF002DE9F047044690F829
:101F900020000D46012812D04FF0010A84F820A03D
:101FA000022084F821002068002680684FEA406003
:101FB00042B100281ADA287800F00EFD17E002205E
:101FC000BDE8F087002800DBEE70287800F00DFDFA
:101FD0000204687800F009FD42EA0022A87800F0C7
:101FE00004FD0243E87842EA00470AE0EE70A87870
:101FF000297840EA01476878E978000240EA014020
:1020000007432168CA20486221685320486220465D
:1020100000F0ACFD4FF0FF084FF00409E0B917489D
:102020000740206807602068816821F48021816072
:10203000D5E90301084321688A6810438860206855
:10204000C16821F08001C1602068806880060CD4DE
:10205000204600F015F840B12168C1F8248084F8CA
:10206000219084F820600120AAE72168C1F824802B
:1020700084F821A084F820600020A1E77F7F7F0002
:1020800070B504460068C16821F0A001C160FEF788
:1020900099FB05464FF47A7607E000BFFEF792FB06
:1020A000401BB04201D9032070BD2068C068800683
:1020B000F4D5002070BD10B5401EB0F1807F01D373
:1020C000012010BD4FF0E02460610F21601700F087
:1020D000AFFA0020A06107202061002010BDFEE7BC
:1020E0007FB5044600208DF80C0040F6B83501237A
:1020F00003A88DE8290002232046FEF7E1FB10B17A
:10210000204600F02DF89DF80C0004B070BD0000D2
:102110003FB5054690F8410083B0202802D0012049
:1021200007B030BD40F6B834012306A88DE8190089
:1021300002232846FEF77EFC084C207018B1284682
:1021400000F00EF807E02846FEF75BFB2028FAD1E6
:102150000A20FEF7F9F92078E2E70000500000209D
:1021600010B50446FEF734FB2046BDE8104000F0F1
:1021700011B801688A69D243920701D400228A62A9
:1021800000688169C943C90703D0816941F0010131
:102190008161704710B50446FEF733FB002815D166
:1021A0000B4820600B48606000200121C4E9020157
:1021B00020616061E061206200F04CF82046FEF78B
:1021C00023FB00BF94F841002028FBD110BD000084
:1021D00000540040262611902DE9F0410446006885
:1021E00090460E468069C043C0062ED400252027A5
:1021F00020688069C043800611D5701CF8D02EB1CC
:10220000FEF7E0FAA0EB0800B042F1D984F8417083
:1022100084F8425084F840500320BDE8F0812168E2
:102220001020C8612068C7612046FFF7A2FF54F85C
:10223000440B4168064A11404160042044F82009DB
:102240006777A57725770120E7E70020E5E700001D
:1022500000E800FE30B5284CA9B0A06D40F08050D9
:10226000A065A06D00F080502790FEF763FE40252A
:10227000A014009514906846FEF774FEE06C40F0E0
:102280000200E064E06C22A900F002002790122016
:10229000CDE9225001202490022025900420174DE2
:1022A00026902846FEF79EF98020229022A92846F3
:1022B000FEF798F9A06D40F40010A065A06D00F441
:1022C00000102790A06B40F40010A063A06B20F4D6
:1022D0000010A063002201211F20FEF7C7FD1F2070
:1022E000FEF7B9FD002201212020FEF7BFFD2020CE
:1022F000FEF7B1FD29B030BD0010024000040048D7
:102300002DE9F84304461646DDE908974FF40050DE
:102310009846DAB200900023204600F05FF83A4673
:102320004946204600F0BCF818B1606C04281CD067
:1023300018E0F5B2B8F1010F09D02168300A8862BF
:102340003A464946204600F0ABF80028EDD1206817
:1023500085624B46002240212046009700F050F84D
:10236000002800D00320BDE8F8830120FBE72DE919
:10237000F843044616464FF400509846DDE90897A6
:10238000DAB2C3020090204600F028F83A464946E7
:10239000204600F085F818B1606C04281CD018E0C5
:1023A000F5B2B8F1010F09D02168300A88623A46C7
:1023B0004946204600F074F80028EDD12068856277
:1023C0004B46002280212046009700F019F8002893
:1023D00000D00320BDE8F8830120FBE770B5056855
:1023E000049E6C6805480440C1F3090040EA0240BD
:1023F000184330432043686070BD0000009800FC23
:102400002DE9F0411D4617460E460446DDF81880BA
:1024100013E0681C11D02DB1FEF7D4F9A0EB080031
:10242000A8420AD9202084F84100002084F8420004
:1024300084F840000320BDE8F0812068806936EA16
:10244000000004D00020B842E3D00020F3E70120D0
:10245000F9E770B516460D4604461AE0324629469D
:102460002046FFF7B9FE08B1012070BD25B1FEF787
:10247000A9F9801BA8420CD954F8440F40F0200061
:1024800044F80409202060700020A0702070032010
:1024900070BD20688069C0438006DFD4002070BD15
:1024A00070B516460D4604461CE0324629462046C5
:1024B000FFF792FE08B1012070BD681C12D025B153
:1024C000FEF780F9801BA8420CD954F8440F40F065
:1024D000200044F80409202060700020A0702070C3
:1024E000032070BD20688069C0438007DDD40020D0
:1024F00070BD000030B5B9B0142122A8FDF767FE09
:10250000442127A8FDF763FE88216846FDF75FFE9A
:10251000364CA06D40F08050A065A06D002500F005
:10252000805038900420319527900120299027A8C9
:10253000FFF72EF800B1FEE74FF400300090401294
:1025400021906846FEF70EFDE06C40F00100E0646B
:10255000E06C00F001003890E06C40F00200E064B4
:10256000E06C00F002003890E06C40F00400E064A1
:10257000E06C00F004003890E06C40F00800E0648B
:10258000E06C22A900F00800389048F2C070229058
:102590000220CDE92305032025900B2026904FF043
:1025A0009040FEF71FF84FF23320229022A91048E6
:1025B000FEF718F84FF4FC70229022A90D48FEF7A0
:1025C00011F84FF47F40229022A90B48FEF70AF839
:1025D0000220FDF7B9FFA06D40F40070A065A06D6A
:1025E00000F40070389039B030BD00000010024097
:1025F0000004004800080048000C004870B504467C
:10260000FEF7E0F805464FF47A7608E0FEF7DAF8D0
:10261000401BB04203D90120A063032070BD206895
:102620008068C0438006F1D4002070BDFEE770478B
:102630000907090E002806DA00F00F0000F1E0207B
:1026400080F8141D704700F1E02080F800147047F6
:10265000704700002DE9F041544C05460F46E068F4
:102660000026820728684FF0700112D0E26802F05D
:10267000030282421BD1D0B1E06891FAA1F100F0CF
:102680007000B1FA81F1C8406968401C88420ED1DF
:1026900022E0012804D0022805D0032807D108E051
:1026A0002268920701E022685205002A07DB012612
:1026B00078E02268920302D422685203F5E7E268C8
:1026C00091FAA1F122F073036A68B1FA81F1521E06
:1026D0008A4013430343E360206820F08060206059
:1026E000FEF770F8804605E0FEF76CF8A0EB0800F6
:1026F00002284ED820680001F6D44FF4FE4017B3EC
:1027000090FAA0F0A968012FB0FA80F04FF0FF32E4
:1027100001FA00F12AD0686902EB50004FF0C06264
:1027200092FAA2F2B2FA82F2904001432069204A62
:10273000104001432161206840F080602060FEF776
:1027400041F8074627E090FAA0F0A968B0FA80F0B7
:102750008140E8684FF4003292FAA2F20009B2FA1E
:1027600082F2904001432069124AE1E7286902EBB6
:1027700050004FF4C00292FAA2F2B2FA82F29040F4
:10278000014320690C4AD3E7FEF71CF8C01B02285E
:1027900001D9032606E020680001F5D52069A96962
:1027A000084320613046BDE8F0810000001002407F
:1027B000FF80FFF9FF80FDFFFF809FFF2DE9F041C3
:1027C0004A4C06468846E0680025810730684FF08D
:1027D000700312D0E16801F0030181421BD1D0B136
:1027E000E06893FAA3F100F07000B1FA81F1C840FB
:1027F0007168401C88420ED122E0012804D00228D2
:1028000005D0032807D108E02168890701E0216885
:102810004905002907DB012564E02168890302D40A
:1028200021684903F5E7E16893FAA3F321F0730205
:102830007168B3FA83F3491E99400A430243E26088
:10284000206820F080502060FDF7BCFF074604E0C0
:10285000FDF7B8FFC01B02283BD820688000F7D4E2
:102860004FF4FE4191FAA1F1B068B8F1000FB1FA4E
:1028700081F100FA01F019D031694FF0FF3202EB1B
:1028800051014FF0C06292FAA2F2B2FA82F2914084
:1028900008436169164A114008436061206840F0AE
:1028A00080502060FDF78EFF074614E0F1684FF47A
:1028B000003292FAA2F20909B2FA82F29140084378
:1028C00061690C4AE7E700BFFDF77CFFC01B0228E7
:1028D00001D9032506E020688000F5D5606971699B
:1028E000084360612846BDE8F08100000010024006
:1028F000FF80FFF9FF80FDFFF8B51C4D0646002460
:10290000A86DC00002D5FEF71DFB0DE0A86D40F0DC
:102910008050A865A86D00F080500090FEF712FB73
:10292000A96D21F08051A965B0F5007F04D0802EFB
:1029300007D94FF003040AE0802E08D9A02E01D851
:1029400004E001D1022402E0702E00D101240848E5
:10295000016821F0070121430160006800F00700D1
:10296000A04201D00120F8BD0020F8BD00100240B7
:102970000020024000B58BB04FF4807009904FF0FA
:1029800080300590012269460D48FFF7BDF920B15E
:10299000FDF7C4FC0BA0FDF7C7FC09480068C1683F
:1029A00001F0800161F4C071C1602920FEF753FA83
:1029B000002203212920FEF759FA0BB000BD0000C8
:1029C000D800002041205320580000000148FFF7A4
:1029D000B5B80000D8000020010901EB810100F02A
:1029E0000F0000EB4100C0B27047002102E00A383E
:1029F000C0B2491C0A28FAD2090740EA11607047A0
:102A000070B5514C88B054F8580F40F08050206099
:102A1000206800F080500690FEF79CFA54F8380FBA
:102A200020F4407040F480702060206840F4004042
:102A300001C4206840F0010044F8940903230220F7
:102A40005FF0010290FAA0F1B1FA81F141F060016A
:102A5000B2EB511F01D1216818E090FAA0F1B1FA50
:102A600081F141F06001B0EB511F02D1D4F8901018
:102A70000CE090FAA0F1B1FA81F141F06001B3EB02
:102A8000511F02D1D4F8941000E0E16990FAA0F54A
:102A9000B5FA85F505F01F0502FA05F52942D1D0F2
:102AA0002B4C2A4800252060402060607F20A060D9
:102AB000F920C4E90305A5612046E561FFF7C6F8E2
:102AC00020B1FDF72BFC23A0FDF72EFC13208DF881
:102AD000170010208DF8150018208DF81600042618
:102AE0008DF81460002205A91948FFF7E1F920B11B
:102AF000FDF714FC19A0FDF717FC8DF800603A20D3
:102B00008DF801000F208DF802008DF803504FF46E
:102B10000030CDE90305002269460D48FFF734FA7D
:102B200020B1FDF7FBFB0FA0FDF7FEFB2068016C59
:102B300021F001010164016C21F0080101640448E5
:102B4000FFF79EFA08B070BD001002400028004058
:102B5000D800002052542049205800004420492029
:102B600058000000542049205800000070B5044669
:102B70000068C168490614D44FF0FF31C160FDF709
:102B800021FE05464FF47A7607E000BFFDF71AFEF6
:102B9000401BB04201D9032070BD2068C0684006C8
:102BA000F4D5002070BD7047FDF7FEBF10B598B09A
:102BB000142111A8FDF70BFB44216846FDF707FB24
:102BC0001420009001200290602100240690CDE99D
:102BD00007410221CDE90A100C9028200D90072012
:102BE0000E900420CDE90F016846FEF7D1FC00B13C
:102BF000FEE70F2011900320CDE912041494042164
:102C000011A81594FEF786FB00B1FEE7094CA06DF4
:102C100040F08050A065A06D00F080501690201507
:102C2000FEF756F900B1FEE7A06D20F08050A065D8
:102C300018B010BD001002400D48016841F4700149
:102C400001600C48016841F00101016000218160D0
:102C50000268094B1A4002608214C260026822F4C2
:102C60008022026081610249C00380390860704798
:102C700088ED00E000100240FFFFF6EA0148FEF791
:102C8000CBBE0000D800002070477047FEE7000070
:102C90002DE9F0411D46FDF7BFFBFE4C062D7DD210
:102CA000DFE805F0034FA3F6F4F32078FA4DC107EF
:102CB000C90E00F0020241EA825100F0040241EA2A
:102CC000025300F008000343F2482A4600213C3832
:102CD000FEF77CF82079C107C90E00F0020241EA34
:102CE000825100F0040241EA025300F0080003435D
:102CF000E8482A4602213C38FEF768F8207AC107E6
:102D0000C90E00F0020241EA825100F0040241EAD9
:102D1000025300F008000343DE482A4604213C38F1
:102D2000FEF754F8207BC107C90E00F0020241EA09
:102D3000825100F0040241EA025300F0080003430C
:102D400050E02078D54DC107490E00F0020241EA5B
:102D5000023100F0040241EA822100F0080041EA59
:102D60008003CC482A4600213C38FEF72FF8207912
:102D7000C107490E00F0020241EA023100F00402EC
:102D800041EA822100F0080041EA8003C1482A4656
:102D900002213C38FEF71AF8207A00E0A3E1C107CF
:102DA000490E00F0020241EA023100F0040241EA59
:102DB000822100F0080041EA8003B6482A46042137
:102DC0003C38FEF703F8207BC107490E00F00202F1
:102DD00041EA023100F0040241EA822100F00800D9
:102DE00041EA80032A4606211DE12078AC4DC10747
:102DF000090C00F0020241EA027100F0040241EA0B
:102E0000826100F0080041EAC023A2482A4600215E
:102E10003C38FDF7DBFF2079C107090C00F0020206
:102E200041EA027100F0040241EA826100F0080008
:102E300041EAC02397482A4602213C38FDF7C6FFE5
:102E4000207AC107090C00F0020241EA027100F089
:102E5000040241EA826100F0080041EAC0238D4883
:102E60002A4604213C38FDF7B1FF207BC107090C3D
:102E700000F0020241EA027100F0040241EA8261BC
:102E800000F0080041EAC023ACE7D2E05FE0FFE7D2
:102E900020786FF04045C10700F0080041EAC063A8
:102EA0007C482A4600213C38FDF790FF2078AE0090
:102EB00000F00203C0F3800003437648324601214C
:102EC0003C38FDF783FF20792A46C10700F008004F
:102ED00041EAC0636F4802213C38FDF777FF207953
:102EE000324600F00203C0F3800003436948032127
:102EF0003C38FDF76BFF207A2A46C10700F0080036
:102F000041EAC063634804213C38FDF75FFF207A43
:102F1000324600F00203C0F3800003435D48052100
:102F20003C38FDF753FF207B2A46C10700F008001C
:102F300041EAC063574806213C38FDF747FF207B34
:102F4000324600F00203C0F3800003436AE02078B9
:102F50006FF0407600F00201090600F0040041EA3B
:102F600080534C48324600213C38FDF72FFF206843
:102F7000042505EA500100F0010041EAC00345487C
:102F8000B7153A4601213C38FDF720FF207932463B
:102F900000F00201090600F0040041EA80533D48B8
:102FA00002213C38FDF712FF60683A4605EA5001FD
:102FB00000F0010041EAC003364803213C38FDF728
:102FC00005FF207A324600F00201090600F00400F5
:102FD00041EA80532F4804213C38FDF7F7FEA068F2
:102FE0003A4605EA500100F0010041EAC0032948D1
:102FF00005213C38FDF7EAFE207B324600F0020155
:10300000090600F0040041EA8053224806213C38BA
:10301000FDF7DCFEE0683A4605EA500100F00100E9
:1030200041EAC0030721BDE8F0411A483C38FDF7EA
:10303000CDBE20781B4DC107890B00F0020241EA8A
:10304000C21100F0040241EAC21100F0080041EA96
:10305000C05310482A4600213C38FDF7B7FE2079BE
:10306000C107890B00F0020241EAC21100F004021C
:1030700041EAC21100F0080041EAC05305482A465F
:1030800002213C38FDF7A2FE207AC107890B00F02F
:10309000020209E04C010020E7FF3FFF9FCFFFFF46
:1030A000FF3FFFCFFFFCFDFB41EAC21100F004022D
:1030B00041EAC21100F0080041EAC0532A46042147
:1030C0000A48FDF783FE207BC107890B00F002024E
:1030D00041EAC21100F0040241EAC21100F0080006
:1030E00041EAC0537EE6BDE8F081000010010020F7
:1030F0000FB41CB50246002007AC00290BD0491EB6
:10310000CDE90021054B6A462146069800F018F8E3
:10311000009A002111701CBC5DF814FBFF320008FE
:1031200002E008C8121F08C1002AFAD17047704790
:10313000002001E001C1121F002AFBD170470000EE
:103140002DE9FF4F8BB09A460F460546002606E054
:1031500025280BD052460D9990476D1C761C287877
:103160000028F5D10FB0304600F0C6B80024A046C4
:103170000122604900E0044315F8013F203B02FAB8
:1031800003F00842F7D128782E2817D115F8010F3F
:1031900044F004042A280ED06FF02F022878A0F102
:1031A000300109290AD808EB880102EB410100EB44
:1031B00001086D1CF2E757F8048B6D1C287869280C
:1031C0003ED006DC0028CDD063280BD0642804D183
:1031D00036E0732810D075284BD052460D99904791
:1031E000761C85E017F8040B8DF8000000208DF8A0
:1031F0000100E946012003E057F8049B4FF0FF303F
:1032000061074FF0000401D40AE0641C44450DDA64
:103210008442FADB19F804100029F6D106E0641C98
:103220008442FCDB19F804100029F8D1264404E09C
:1032300019F8010B52460D999047641EF8D257E0D9
:1032400001CF4FF00A0B002802DA40422D2102E0A4
:10325000210504D52B218DF82410012103E0E1077D
:1032600005D02021F7E70DF1200908910CE000219D
:10327000F9E701CF4FF00A0BF9E75946FCF7B2FF27
:1032800001F1300209F8012D0028F6D1ADEB09005B
:1032900000F1200B600701D44FF00108D84502DD92
:1032A000A8EB0B0000E000208046002406E009A8FF
:1032B0005246005D0D999047641C761C0898844224
:1032C000F5DB04E0302052460D999047761CB8F1AA
:1032D0000001A8F10108F5DC05E019F8010B5246E0
:1032E0000D999047761CBBF10001ABF1010BF4DCAA
:1032F0006D1C34E70928010030BCBDE8C08F4A6866
:10330000002A06D00A68531C0B6010704868401EE3
:10331000486070470E4910B50022A1F12400FEF765
:1033200069FC0B4800220B492438FEF741FC084990
:10333000084816380A78C2714A78827189784171D2
:103340000449CA7802714A78C2708978817010BDC8
:10335000FC00002016000020084800F12D01C27971
:103360000A7082794A7042798A700279CA70C2788A
:103370000A7182784A714078887170470000002095
:103380001CB5B24C002525726573A573E5732574D1
:103390006574A5742573E572FDF70EFC0020FDF73A
:1033A00001F80120FCF7FEFFFFF700FC0020FDF70D
:1033B0000FFCFCF7D1FF0120FCF754FFA4A0FCF7A1
:1033C000B3FF4FF47A70FDF7BFF8FFF719FBFFF773
:1033D000D1FAA148FEF7DEFE16B19F48FEF7C0FE07
:1033E000DFF868A24FF003090AF1260A0AF107087C
:1033F00008F1070BFCF71EFF98B9FDF7E3F9E06150
:103400004FF44877012608E0FDF7DCF9E169401A3E
:10341000B84202D9207800B92670FCF70BFF0028CB
:10342000F2D0607C012823D16574207820B1042873
:1034300005D0052810D01BE00620207018E0E07AA7
:1034400018F800201AF80030B2FBF3F603FB16223E
:10345000521C08F800200BE0E07A08EB0001504411
:10346000CB78C078B3FBF0F200FB1230401CC87080
:10347000607B01281FD16573207840B1022809D0F4
:1034800003280AD004280AD005280FD013E0022010
:10349000207010E084F800900DE025700BE0E07AD9
:1034A000401CB0FBF9F209FB120003E0E07A401C7B
:1034B00000F00300E072A07B01281BD1A5732078E7
:1034C00020B1042809D0052811D013E0E572FFF7D8
:1034D00021FFFFF741FF042007E0E57200F0C6F886
:1034E000FFF718FFFFF738FF0520207002E000F01B
:1034F000BDF8257021780729BFF47CAFDFE801F023
:1035000004051D335960750074E7FFF703FF217947
:10351000E078CDE900014D48A37850A20821203081
:10352000FFF7E6FDFCF7FAFE48482030FCF7FCFE0A
:1035300040F2DC50FDF708F885E0A08A617A084483
:1035400082B2A0214448FEF7CBFD0646A08A617AEC
:103550000844401C82B2A0213F48FEF7C1FD074647
:10356000A08A617A14E0A08AA17A084482B2A021DC
:103570003948FEF7B5FD0646A08AA17A0844401CEA
:1035800082B2A0213448FEF7ABFD0746A08AA17A9B
:103590000844801C82B2A0212F48FEF7A1FDCDE98E
:1035A00000702A4833462DA208212030FFF7A0FDE5
:1035B00014E0E07A18F8001000915BF8203007E082
:1035C000E07A08EB00010BEB8000C9780091C3683A
:1035D0001E4824A208212030FFF78AFDFCF79EFE3A
:1035E0001A482030FCF7A0FE04E7FFF793FEA08AFC
:1035F000217AE379084482B2A0211748FEF788FDBA
:10360000A08A217AA3790844401C82B2A0211248E2
:10361000FEF77EFDA08A217A63790844801C82B27D
:10362000A0210D48FEF774FD207A10B1032806D0C2
:1036300009E084F80890657284F80A9003E0257226
:1036400084F80990A5722570D4E6000000000020DF
:103650004D543354413400008C000020256425640F
:10366000256400002573202564000000104810B573
:10367000A0F11701C278CA7002794A7042798A7043
:1036800082790A700B4902780A7042784A70807811
:1036900088700022A1F12400FEF776FC0449054859
:1036A00000221739BDE810402438FEF701BC0000A5
:1036B0002D000020FC00002000FE1467001D1447B0
:1036C000009D009C003F00FA14000053419800192F
:1036D000485A095A005F00FC015F01FC00AF140466
:1036E000005BC018815AC9005800C005005F004245
:1036F00000F5006700EA00AF00BF004600FF00EFE2
:103700000400000106070817090001000200040078
:103710002000080000000000000000000102030477
:1037200006070809A0860100400D0300801A060064
:1037300000350C0040420F0080841E0000093D004F
:1037400000127A000024F40000366E010048E801FF
:10375000006CDC02646400007764000068680000AC
:103760006D6D00006D6F00007373000079790000CB
:103770009037000800000020800000002031000881
:103780001038000880000020E004000030310008FC
:103790000000000000000000000000000000000029
:1037A000000000000A00000000000000000000000F
:1037B0000000000000000C3C3C640C1F07000000EF
:1037C000000000005C370008603700086837000818
:1037D0006C37000864370008543700085837000871
:1037E00000000000B80B0000B80B00000004004807
:1037F0000010004800000048000000480000004899
:1038000000000048000000480000000000093D00E2
:040000050800018965
:00000001FF
